:100000000C9480000C94A8000C94A8000C94A800F8
:100010000C94A8000C94A8000C94A8000C944F0F0A
:100020000C94A8000C94A8000C94A8000C94A800B0
:100030000C94A8000C94A8000C94A8000C94A800A0
:100040000C9435120C94A8000C941D110C94F7100C
:100050000C94A8000C94A8000C94A8000C94A80080
:100060000C9465010C94A8004E414E494E495459D8
:10007000494E46CDCCCC3D0AD7233C17B7D1387773
:10008000CC2B329595E6241FB14F0A000020410089
:1000900000C84200401C4620BCBE4CCA1B0E5AAED3
:1000A000C59D74010204081020408001020408105C
:1000B0002001020408102000000000250028002B69
:1000C0000004040404040404040202020202020301
:1000D00003030303030200000000240027002A009A
:1000E0000000000023002600290000000008000294
:1000F0000100000304070000000000000000561D7E
:1001000011241FBECFEFD8E0DEBFCDBF23E0A2E7B2
:10011000B2E001C01D92AA3FB207E1F712E0A0E0F1
:10012000B1E0E4E4F7E402C005900D92A237B10714
:10013000D9F710E0C0E8D0E004C02197FE010E948A
:100140007421CF37D107C9F70E9454130C94A02310
:100150000C94000085ED8093BC008091BC0084FD70
:10016000FCCF1092740208954091AF02262F30E028
:10017000240F311D21323105DCF42091740224302A
:10018000C9F4FC0180E090E0861758F43091AF028A
:100190002191DC01A357BD4FA30FB11D2C930196F4
:1001A000F3CF8091AF02680F6093AF0280E00895B3
:1001B00081E0089582E00895089581E090E0309113
:1001C000780220917702321710F480E090E0919548
:1001D000819591090895809178029091770289170D
:1001E00030F48F5F8093780280E090E008958FEF85
:1001F0009FEF08958091770290E020917802821B12
:1002000091090895CF92DF92EF92FF920F931F937F
:10021000CF93DF937C01262F972F8A018091CD0306
:10022000882391F0C62FD72F6E01C40ED51ECC1592
:10023000DD0571F06991D701ED91FC910190F0819C
:10024000E02DC7010995F3CF642F822F0E94B400DF
:10025000C801DF91CF911F910F91FF90EF90DF9038
:10026000CF900895CF93DF931F92CDB7DEB7698308
:100270002091CD032223D1F020917502203240F04D
:1002800021E030E0FC013383228380E090E015C060
:1002900080917602E82FF0E0E253FC4F9981908341
:1002A0008F5F809376028093750205C061E0CE0176
:1002B00001960E94B40081E090E00F90DF91CF9111
:1002C0000895089580E090E008951F920F920FB670
:1002D0000F9211242F933F934F935F936F937F93CC
:1002E0008F939F93AF93BF93EF93FF938091B90048
:1002F000887F803609F49CC068F5883209F45BC0B9
:1003000090F4803109F454C038F4882309F4F6C01D
:10031000883009F44DC0F6C0883109F44CC08032F1
:1003200009F45DC0EFC0803409F468C048F480333C
:1003300009F455C0883309F0E5C08093CC03D8C0D8
:10034000803509F44FC0883509F45DC0883409F060
:10035000D9C0D6C0883909F4C7C0A8F4883709F4D1
:1003600067C038F4883609F463C0803709F460C088
:10037000C9C0883809F4B8C0803909F45FC0803832
:1003800009F0C0C05BC0803B09F486C038F4803AF5
:1003900009F466C0883A09F47FC0B4C0803C09F40F
:1003A000A7C0883C09F4A4C0883B09F48AC0AAC04D
:1003B0008091A90310C09091CB038091CA03981734
:1003C00070F5E091CB0381E08E0F8093CB03F0E0DA
:1003D000E655FC4F80818093BB0085EC86C08093FE
:1003E000CC038EC0E091CB0381E08E0F8093CB03D2
:1003F0008091BB00F0E0E655FC4F80839091CB03E9
:100400008091CA036EC0E091CB0381E08E0F809390
:10041000CB038091BB00F0E0E655FC4F80838091D8
:10042000730281116DC081E08093720284EA61C021
:1004300083E0809374021092D302CFCF8091D302D5
:10044000803208F051C0E091D30281E08E0F80939A
:10045000D3028091BB00F0E0ED54FD4F8083BDCF0F
:1004600085EC8093BC00109274028091D30280329C
:1004700030F4E091D302F0E0ED54FD4F1082609132
:10048000D30270E0E091B102F091B20283EB92E00E
:1004900009951092D30236C084E0809374021092C2
:1004A000B0021092AF02E091AD02F091AE02099558
:1004B0008091AF02811105C081E08093AF0210925C
:1004C0008D02E091B00281E08E0F8093B002F0E0E7
:1004D000E357FD4F80818093BB009091B0028091E3
:1004E000AF02981708F479CF85E88093BC000AC062
:1004F00085EC8093BC001092740204C01092CC036F
:100500000E94AA00FF91EF91BF91AF919F918F91AF
:100510007F916F915F914F913F912F910F900FBEFF
:100520000F901F9018952F923F924F925F926F926B
:100530007F928F929F92AF92BF92CF92DF92EF9273
:10054000FF920F931F93CF93DF93CDB7DEB7A197A1
:100550000FB6F894DEBF0FBECDBF282E2DB73EB725
:100560003E8F2D8F64EB71E0CE0143960E94C90E41
:1005700060E080917F030E94781161E080917D03AB
:100580000E9478118FEB0E94850A00E813E00E9418
:100590005B0AF80181938F01F3E008381F07B9F770
:1005A00060E080917D030E94781180918003382F54
:1005B0003695369536953E70932F990F990F390FD2
:1005C0008F70380F80918103482F46954695469548
:1005D0004E70942F990F990F490F8F70480F90917B
:1005E0008203892F8F7097FF09C095FB222720F97E
:1005F0009CE0299F800D1124282F0AC090739695A6
:1006000096959695292F220F220F920F292F280FAA
:100610002A3010F480E305C0822F6AE00E9427216F
:10062000805D809323025AE0822F652F0E9427214C
:10063000905D909324028AE3809325024A3010F45F
:1006400080E305C0842F652F0E942721805D809361
:1006500026022AE0842F622F0E942721905D90932A
:1006600027028AE3809328023A3010F480E305C021
:10067000832F622F0E942721805D80932902832F80
:100680006AE00E942721905D90932A0210922B022B
:1006900063E272E0CE010D960E94C90EEDB7FEB77F
:1006A000FC8FEB8FBE016D5E7F4F8E010F5F1F4F82
:1006B000C8010E94AF0EBE01635F7F4FCE01079657
:1006C0000E94AF0E6B857C852F813885AD81BE8100
:1006D00049815A8180E090E0312C8617970718F401
:1006E0002115310529F410928B02EBE8F2E003C0EA
:1006F000F901E80FF91FE081EE2301F18617970752
:1007000018F42115310529F410928B02EBE8F2E080
:1007100003C0F901E80FF91FF080109719F0411597
:10072000510529F410928B02EBE8F2E001C0FA01C6
:10073000E081FE1201C033940196CFCFCE0107961F
:100740000E94510EC8010E94510E311013C08D85B8
:100750009E8598878F838F8598899A8789878989CD
:100760009A899C878B871E861D86188A1F861A8AFF
:10077000198AE0C0A32CB12C6501FFEFCF1ADF0A64
:1007800086E08C9D90018D9D300D11243A8F298F2C
:100790008DB79EB7821B930B0FB6F8949EBF0FBE0A
:1007A0008DBFEDB7FEB731967F013F01450161E78F
:1007B00072E0C3010E94C90EF1E08F1A910826E091
:1007C000620E711C3FEF8316930689F78FEFC81AEC
:1007D000D80AEDB7FEB7EC19FD090FB6F894FEBFC5
:1007E0000FBEEDBF2DB73EB72F5F3F4F6901898820
:1007F0009A88F901EA0DFB1D80828114910461F051
:100800006D847E846B897C89C3010E948623009756
:1008100019F08619970902C08FEF9FEFF6018083C8
:100820002B893C894D845E84360141E04C19842F2C
:10083000860D8315E8F4F30181913F0190E0019664
:100840008815990580F4B901840D951D2F8F38A363
:1008500049A30E9486232F8D38A149A1009719F042
:100860008419950902C08FEF9FEFF3018083DFCFDA
:10087000F601208130E040E050E0BE01635F7F4F31
:10088000C8010E94DE0EE016F10621F0B801C70192
:100890000E94180EC8010E94510E552453949E01C7
:1008A0002F5F3F4F490186E0482E652C712CA6141E
:1008B000B70414F1F601E60DF71D208130E0319701
:1008C000408150E04F5F5F4FBE01635F7F4FC401C7
:1008D0000E94DE0E469CC001479C900D11248E0D97
:1008E0009F1D8815990519F0B4010E94180EC401C6
:1008F0000E94510E5394D9CF312C31E0231A310884
:1009000086E0829DB001839D700D11246E0D7F1DC8
:10091000CE0107960E94AF0EC98CDA8CCE0CDF1C7C
:10092000CE14DF0439F086E0C81AD108C6010E944F
:10093000510EF6CFEB8DFC8D0FB6F894FEBF0FBEB7
:10094000EDBFBE01695F7F4FCE0101960E94AF0EE1
:100950008F819885009729F00E94B31D6B017C015F
:1009600003C0C12CD12C7601C8010E94510ECE01CA
:1009700007960E94510ECE010D960E94510ECE0197
:1009800043960E94510EC701B6010E94F820862F9F
:100990002D8D3E8D0FB6F8943EBF0FBE2DBFA19694
:1009A0000FB6F894DEBF0FBECDBFDF91CF911F9180
:1009B0000F91FF90EF90DF90CF90BF90AF909F90FE
:1009C0008F907F906F905F904F903F902F90089501
:1009D00010928502109284020C94530ACF93DF93F5
:1009E00082E00E944F11EC0183E00E944F112091A0
:1009F0000E0130910F01C217D30739F440910C0159
:100A000050910D018417950771F02130310559F48B
:100A1000209749F420910C0130910D01220F331FD2
:100A20002150310902C020E030E0D0930F01C09383
:100A30000E0190930D0180930C01C901DF91CF91BC
:100A40000895CF93DF93CDB7DEB762970FB6F894D2
:100A5000DEBF0FBECDBF8CE292E00E946A0D81E046
:100A600080938C0280918C02882309F4F5C00E9447
:100A7000EE04809383024AE060918402CE010D96D9
:100A80000E94820E4AE060918502CE0101960E948A
:100A9000820EBE016F5F7F4FCE0107960E94AF0EA0
:100AA000CE0107960E94460DBE01635F7F4F0E94F4
:100AB000E60D0E94B90FCE0107960E94510ECE019D
:100AC00001960E94510ECE010D960E94510E80910A
:100AD0008302813091F480918C02813031F48091D5
:100AE0008102873109F18F5F13C08230E9F4809170
:100AF00080028B33C9F08F5F15C08F3FA9F48091BE
:100B00008C02813041F480918102882369F0815008
:100B10008093810209C0823039F480918002882359
:100B200019F081508093800260E082E00E941A0DEB
:100B300080918102682F082E000C770B4AE08A30E2
:100B4000ECF4CE0107960E94560E6FEF71E0CE01D5
:100B500001960E94C90EBE01695F7F4FCE010196CA
:100B60000E94E60DBC0188E893E00E94AB0FCE0125
:100B700001960E94510ECE0107960DC0CE0101963E
:100B80000E94560EBE016F5F7F4F88E893E00E947F
:100B9000AB0FCE0101960E94510E60E085E00E94ED
:100BA0001A0D80918002682F082E000C770B4AE006
:100BB0008A30ECF4CE0107960E94560E6FEF71E07A
:100BC000CE0101960E94C90EBE01695F7F4FCE0122
:100BD00001960E94E60DBC0188E893E00E94AB0FED
:100BE000CE0101960E94510ECE0107960DC0CE0196
:100BF00001960E94560EBE016F5F7F4F88E893E01A
:100C00000E94AB0FCE0101960E94510E84E00E941B
:100C10004F11892B09F026CF4DE750E060E070E0DE
:100C200080E193E00E94B70A6DE770E080E090E019
:100C30000E94FB1180918C02813021F482E080932C
:100C40008C0204C0823011F410928C0284E00E9465
:100C50004F11892BD9F306CF62960FB6F894DEBFF9
:100C60000FBECDBFDF91CF910895CF92DF92EF926B
:100C7000FF920F931F93CF93DF93CDB7DEB76297A9
:100C80000FB6F894DEBF0FBECDBF20910B01022E30
:100C9000000C330B80917F0290E08217930784F061
:100CA0002817390709F0AFC020910A01022E000C65
:100CB000330B80917E0290E0821793070CF0A3C063
:100CC00060E080E00E941A0D8CE392E00E94150D16
:100CD00061E088E00E94781160E089E00E9478116C
:100CE0004DE750E060E070E08CED93E00E94B70AC1
:100CF0006DE770E080E090E00E94FB114DE750E06E
:100D000060E070E080E793E00E94B70A6DE770E072
:100D100080E090E00E94FB114DE750E060E070E061
:100D20008FE393E00E94B70A6DE770E080E090E007
:100D30000E94FB1144EF51E060E070E080E793E037
:100D40000E94B70A64EF71E080E090E00E94FB111E
:100D50004AEF50E060E070E083E992E00E94B70A59
:100D60006AEF70E080E090E00E94FB1144EF51E0F8
:100D700060E070E08AEB92E00E94B70A64EF71E0F5
:100D800080E090E00E94FB114AEF50E060E070E0EC
:100D900080E793E00E94B70A6AEF70E080E090E09D
:100DA0000E94FB1144EF51E060E070E083E992E0C3
:100DB0000E94B70A64EF71E080E090E00E94FB11AE
:100DC00044EF51E060E070E08BE092E00E94B70AEF
:100DD00064EF71E080E090E00E94FB1144EF51E08D
:100DE00060E070E08EEE91E00E94B70A64EF71E07F
:100DF00080E090E00E94FB1102E310E0FF24F394F6
:100E000022E0E22E22C160E080E00E941A0D8CE414
:100E100092E00E94150D61E089E00E94781160E087
:100E200088E00E9478114DE750E060E070E08BE4CC
:100E300092E00E94B70A6DE770E080E090E00E94C7
:100E4000FB114DE750E060E070E083E992E00E9422
:100E5000B70A6DE770E080E090E00E94FB114DE77B
:100E600050E060E070E084EE92E00E94B70A6DE727
:100E700070E080E090E00E94FB114AEF50E060E0FB
:100E800070E080E193E00E94B70A6AEF70E080E0D2
:100E900090E00E94FB114AEF50E060E070E08BE4CC
:100EA00092E00E94B70A6AEF70E080E090E00E9452
:100EB000FB114DE750E060E070E080E193E00E94BC
:100EC000B70A6DE770E080E090E00E94FB114DE70B
:100ED00050E060E070E084EE92E00E94B70A6DE7B7
:100EE00070E080E090E00E94FB114DE750E060E090
:100EF00070E080E193E00E94B70A6DE770E080E067
:100F000090E00E94FB114AEF50E060E070E080E763
:100F100093E00E94B70A6AEF70E080E090E00E94E0
:100F2000FB114AEF50E060E070E083E992E00E943C
:100F3000B70A6AEF70E080E090E05CCF0E94EE04B8
:100F4000809383024AE060918402CE010D960E9454
:100F5000820E4AE060918502CE0101960E94820EC7
:100F6000BE016F5F7F4FCE0107960E94AF0ECE018C
:100F700007960E94460DBE01635F7F4F0E94E60DFB
:100F80000E94B90FCE0107960E94510ECE01019624
:100F90000E94510ECE010D960E94510E9091830237
:100FA00080918502913009F05CC0811154C0F092AB
:100FB00085020E94530A80918502811194C020917C
:100FC0000B01022E000C330B80917F0290E0821700
:100FD00093070CF052C060E080E00E941A0D8CE391
:100FE00092E00E94150D61E080E00E941A0D8DE5EF
:100FF00092E00E94150D20910B01022E000C330B84
:1010000080917F0290E0821793070CF04CC061E062
:1010100087E00E941A0D8FEF91E00E94150D84E089
:101020000E944F116C01892B81F44DE750E060E084
:1010300070E080E193E00E94B70A6DE770E080E025
:1010400090E00E94FB11F6010995809182028430A4
:1010500009F474CF96C1813009F0ABCFE0928502DC
:10106000A8CF9F3F09F0A7CF823009F4A0CF8130ED
:1010700009F09FCF109285029CCF2817390761F4A1
:1010800020910A01022E000C330B80917E0290E029
:10109000821793070CF49FCF60E080E00E941A0D46
:1010A0008CE492E09ECF2817390761F420910A0161
:1010B000022E000C330B80917E0290E08217930782
:1010C0000CF4A5CF61E087E00E941A0D80917D02AB
:1010D000B801681B7109660F771F4AE0CE010196BF
:1010E0000E94560E42C160E0813009F0B1C080E03C
:1010F0000E941A0D8DE592E00E94150D20910B01C2
:10110000022E000C330B80917F0290E08217930730
:1011100074F028173907A1F420910A01022E000C5F
:10112000330B80917E0290E0821793074CF460E0CD
:1011300087E00E941A0D8FEF91E00E94150D1BC0F1
:1011400060E087E00E941A0D80917D02B801681B63
:101150007109660F771F4AE0CE0101960E94560E74
:10116000BE016F5F7F4F88E893E00E94AB0FCE0116
:1011700001960E94510E61E080E00E941A0D80EB02
:1011800091E00E94150D61E086E00E941A0D6091C9
:101190007F024AE0CE016A30E0F407960E94820E98
:1011A0006FEF71E0CE0101960E94C90EBE01695F2A
:1011B0007F4FCE0101960E94E60DBC0188E893E0C6
:1011C0000E94AB0FCE0101960E94510ECE010796F0
:1011D0000CC001960E94820EBE016F5F7F4F88E8AF
:1011E00093E00E94AB0FCE0101960E94510E61E088
:1011F00088E00E941A0D84EB91E00E94150D61E0D9
:1012000089E00E941A0D80917F024AE060917E027F
:101210008A3008F0A6C0CE0107960E94820E6FEFBA
:1012200071E0CE0101960E94C90EBE01695F7F4F39
:10123000CE0101960E94E60DBC0188E893E00E9471
:10124000AB0FCE0101960E94510ECE01079696C0BB
:1012500080E00E941A0D80EB91E00E94150D60E085
:1012600086E00E941A0D60917F024AE0CE016A304A
:10127000E0F407960E94820E6FEF71E0CE010196B6
:101280000E94C90EBE01695F7F4FCE0101960E9488
:10129000E60DBC0188E893E00E94AB0FCE010196F9
:1012A0000E94510ECE0107960CC001960E94820E3C
:1012B000BE016F5F7F4F88E893E00E94AB0FCE01C5
:1012C00001960E94510E60E088E00E941A0D84EBA6
:1012D00091E00E94150D60E089E00E941A0D809156
:1012E0007F024AE060917E028A30E8F4CE010796E0
:1012F0000E94820E6FEF71E0CE0101960E94C90E2E
:10130000BE01695F7F4FCE0101960E94E60DBC01D0
:1013100088E893E00E94AB0FCE0101960E94510E27
:10132000CE0107960DC0CE0101960E94820EBE012D
:101330006F5F7F4F88E893E00E94AB0FCE0101966C
:101340000E94510E61E080E00E941A0D84E692E056
:101350000E94150D61E089E00E941A0D4AE060913B
:101360007D02CE0101960E94820EBE016F5F7F4F0B
:1013700088E893E00E94AB0FCE0101960E94510EC7
:101380004ECE62960FB6F894DEBF0FBECDBFDF9192
:10139000CF911F910F91FF90EF90DF90CF90089524
:1013A0000895CF93DF93EC0188819981009711F024
:1013B0000E940F22198218821D821C821B821A82AF
:1013C000DF91CF9108950F931F93CF93DF93EC019B
:1013D00088819981009729F02A813B812617370758
:1013E00088F48B016F5F7F4F0E94A722009761F006
:1013F000998388831B830A832C813D81232B11F4DD
:10140000FC01108281E001C080E0DF91CF911F914B
:101410000F910895EF92FF920F931F93CF93DF9355
:10142000EC017B018A01BA010E94E309811104C029
:10143000CE010E94D10907C01D830C83B7018881AA
:1014400099810E947F23CE01DF91CF911F910F914F
:10145000FF90EF900895CF93DF93EC016115710534
:1014600059F0FB0101900020E9F73197AF01461BCD
:10147000570B0E940A0A02C00E94D109CE01DF91D7
:10148000CF910895CF93C82F682F607F88E893E0AD
:101490000E94E41280E1C89FB001112488E893E023
:1014A000CF910C94E41281E00E94420A8BE39FE109
:1014B0000197F1F708951F93CF93DF9360E0809138
:1014C0007E030E94A811C0E0D0E010E080917E036E
:1014D0000E944F119C0133270C2E01C0220F0A9449
:1014E000EAF7122B61E080917F030E94781160E09F
:1014F00080917F030E9478112196C830D10531F781
:10150000812FDF91CF911F910895EF92FF920F935A
:101510001F93CF93DF93082F61E080917E030E9499
:10152000A811F0907F03E0907E03C0E0D0E010E0CF
:10153000B8010C2E02C0759567950A94E2F76170A8
:1015400077278E2D0E94781161E08F2D0E947811EF
:1015500060E08F2D0E9478112196C830D10541F7A7
:10156000DF91CF911F910F91FF90EF9008953F92DF
:101570004F925F926F927F928F929F92AF92BF92A3
:10158000CF92DF92EF92FF920F931F93CF93DF934F
:1015900000D000D0CDB7DEB720911001263021F069
:1015A0002F3F09F02CC204C0E5EDF0E0349076C086
:1015B00026E020931001E5EDF0E0E491EF3F09F41F
:1015C0001EC2E13011F1E23009F443C0E11165C0FF
:1015D00014BC15BC24B5226024BD25B5216025BDF1
:1015E000E7ECF0E0E491F0E0EE0FFF1FE954FF4F6D
:1015F0002591349130939C0320939B03E9EAF0E01A
:10160000E491E0939A03312C4BC010928000109229
:101610008100209181002860209381002091810029
:10162000216020938100E7ECF0E0E491F0E0EE0F20
:10163000FF1FE954FF4F2591349130939903209374
:101640009803E9EAF0E0E491E093970333243394BC
:1016500027C01092B0001092B1002091B00022601B
:101660002093B0002091B10021602093B100E7ECFD
:10167000F0E0E491F0E0EE0FFF1FE954FF4F2591F9
:1016800034913093960320939503E9EAF0E0E491D6
:10169000E0939403B2E03B2E03C03E2E37FCAFC173
:1016A0002A013B018C0161E086E00E94A8114801FB
:1016B000A12CB12C832D8D7F09F0BBC060E072E1BD
:1016C0008AE790E0A50194010E94552129833A837D
:1016D0004B835C8369017A0121E0C21AD108E108D9
:1016E000F1088FEFC816D104E104F10409F008F401
:1016F0004CC060E472E48FE090E0A50194010E9488
:10170000552169017A01E1E0CE1AD108E108F1081A
:10171000F2E03F1220C02FEFC216D104E104F10421
:1017200009F008F46AC160E970ED83E090E0A5017A
:1017300094010E94552169017A0181E0C81AD108FB
:10174000E108F108EFEFCE16D104E104F10409F04D
:10175000D0F583E067C0FFEFCF16D104E104F104B8
:10176000B1F0A8F068E478EE81E090E0A501940182
:101770000E94552169017A0181E0C81AD108E10867
:10178000F108332009F4DFC02FC181E001C082E0FD
:101790003320A1F047C089819A81AB81BC812AE0C6
:1017A000B595A795979587952A95D1F76C017D01F9
:1017B00021E0C21AD108E108F10885E095B5987FCB
:1017C000892B85BD6FC068E478EE81E090E0A501CB
:1017D00094010E94552169017A01F1E0CF1AD108E4
:1017E000E108F1082FEFC216D104E104F10409F079
:1017F00008F4A7C064E274EF80E090E0A5019401D2
:101800000E94552169017A01E1E0CE1AD108E10870
:10181000F108FFEFCF16D104E104F10411F008F054
:10182000B4C085E09091B100987F892B8093B1007E
:1018300039C060E072E18AE790E0A50194010E945E
:10184000552169017A0181E0C81AD108E108F1083F
:10185000C114D104E1E0EE06F10488F068E478EE0A
:1018600081E090E0A50194010E94552169017A016F
:10187000F1E0CF1AD108E108F10893E001C091E04E
:1018800021E032120FC080918100887F892B8093E4
:101890008100411451046104710449F42FEF3FEFBA
:1018A000A9012DC0411451046104710471F0D801E3
:1018B000AA0FBB1FA30192010E94A72028EE33E0CC
:1018C00040E050E00E94332103C02FEF3FEFA90119
:1018D00081E03816A1F0E2E03E1619F131108FC018
:1018E000C7BC2093A5033093A6034093A70350934E
:1018F000A80380916E00826080936E0080C0D092B9
:101900008900C09288002093A1033093A2034093E2
:10191000A3035093A40380916F00826080936F00B3
:101920006EC0C092B30020939D0330939E034093FA
:101930009F035093A0038091700082608093700099
:101940005EC084E06FCFFFEFCF16D104E104F10455
:10195000D1F0C8F062E17AE780E090E0A50194015F
:101960000E94552169017A0181E0C81AD108E10875
:10197000F108EFEFCE16D104E104F10411F008F004
:101980000ACF84E01BCF83E019CF62E17AE780E0E1
:1019900090E0A50194010E94552169017A0181E03E
:1019A000C81AD108E108F108EFEFCE16D104E1041E
:1019B000F104C1F0B8F089819A81AB81BC814AE021
:1019C000B595A795979587954A95D1F76C017D01B7
:1019D00021E0C21AD108E108F108332009F4EDCE64
:1019E00087E020CF86E0D4CEFFEFCF16D104E1040C
:1019F000F10409F050F684E0CBCE82E013CF0F90D3
:101A00000F900F900F90DF91CF911F910F91FF904A
:101A1000EF90DF90CF90BF90AF909F908F907F908E
:101A20006F905F904F903F900895BC0188E893E0DD
:101A30000C943F13CF93DF93CDB7DEB728970FB643
:101A4000F894DEBF0FBECDBF98E0E7E1F1E0DE0124
:101A5000119601900D929A95E1F790919103961746
:101A600010F46FEF690FFE013196E60FF11DE60FDE
:101A7000F11D9081890F806828960FB6F894DEBF1B
:101A80000FBECDBFDF91CF910C94420A0F931F93ED
:101A9000CF93DF93EC010C811D810F5F1F4FB801C5
:101AA0000E94E309882369F0288139818C819D8116
:101AB0006DE672E0820F931F0E947F231D830C83CB
:101AC00003C0CE010E94D109CE01DF91CF911F91B9
:101AD0000F910895CF93DF93BC0184ED92E00E94B3
:101AE0003F13EC016FE672E084ED92E00E943F1339
:101AF0008C0F9D1FDF91CF9108950F931F93CF936C
:101B0000DF93182F062FCDE7D3E060E08A810E9493
:101B1000781161E088810E947811812F880F806898
:101B20000E94850A802F0E94850A60E08881DF91EB
:101B3000CF911F910F910C947811CF92DF92EF9279
:101B4000FF920F931F93CF93DF93CDB7DEB7A1978B
:101B50000FB6F894DEBF0FBECDBF282F30E040E0B7
:101B600050E019A28E010F5D1F4F8AE0C82ED12CC4
:101B7000E12CF12CCA01B901A70196010E94332181
:101B8000605DF80162938F01211531054105510512
:101B900089F7BF0184ED92E00E943F138C016FE64C
:101BA00072E084ED92E00E943F13800F911FA19696
:101BB0000FB6F894DEBF0FBECDBFDF91CF911F915E
:101BC0000F91FF90EF90DF90CF900895EF92FF92EA
:101BD0000F931F93CF93DF93EC01FB0184819581D9
:101BE000E080F1800C811D81E114F104B1F00097D7
:101BF000B9F0080F191FB801CE010E94E30988232C
:101C000061F0288139818C819D81B701820F931FFA
:101C10000E947F231D830C8303C0CE010E94D10943
:101C2000CE01DF91CF911F910F91FF90EF9008951A
:101C30000F931F93CF93DF938C01EB01FC01808105
:101C400091810097B1F0688179816115710579F012
:101C5000428153812C813D814217530740F00E94FD
:101C60007F238C819D81F8019583848313C00E941A
:101C70000F2288819981F801918380838A819B81D9
:101C8000938382838C819D819583848319821882BA
:101C90001B821A821D821C82DF91CF911F910F91AE
:101CA0000895FC01808191810C940F220F931F9362
:101CB000CF93DF93CDB7DEB762970FB6F894DEBF50
:101CC0000FBECDBF8C01CB01F801118210821382AF
:101CD00012821582148250E0BE016F5F7F4F0E9416
:101CE000B71DBE016F5F7F4FC8010E942B0A62962D
:101CF0000FB6F894DEBF0FBECDBFDF91CF911F911D
:101D00000F9108950F931F93CF93DF93CDB7DEB755
:101D100029970FB6F894DEBF0FBECDBF8C01862F7A
:101D2000F80111821082138212821582148250E00F
:101D3000BE016F5F7F4F90E00E94CD1DBE016F5FBF
:101D40007F4FC8010E942B0A29960FB6F894DEBF78
:101D50000FBECDBFDF91CF911F910F910895FB0171
:101D6000DC0111961C921E9213961C921E921297E1
:101D700015961C921E9214978617970749F060815A
:101D800071816115710521F0448155810C940A0A15
:101D90000895FC011182108213821282158214822E
:101DA0006115710551F0FB0101900020E9F73197B1
:101DB000AF01461B570B0C940A0A0895BF92CF92AD
:101DC000DF92EF92FF920F931F93CF93DF937C01EB
:101DD0006B018A01E9012417350720F4812F89015D
:101DE000C42FD82F61E772E0C7010E94C90ED60147
:101DF00014968D919C91159708171907D0F48C179C
:101E00009D0708F4EC01D601ED91FC911197EC0FC0
:101E1000FD1FB08010824D915C91BA01600F711F5F
:101E2000C7010E942B0AD601ED91FC91EC0FFD1F1A
:101E3000B082C701DF91CF911F910F91FF90EF907A
:101E4000DF90CF90BF90089590911001981324C017
:101E5000E5EDF0E0E4919FEF90931001E130B9F0EF
:101E600098F0E230C9F4909170009D7F90937000DB
:101E700091E09093B0009091B100987F946090931E
:101E8000B1001092B30008C010926E0005C090918E
:101E90006F009D7F90936F0060E00C9478111F920B
:101EA0000F920FB60F9211242F933F934F935F938E
:101EB0006F937F938F939F93AF93BF93EF93FF9312
:101EC00080919D0390919E03A0919F03B091A003E8
:101ED000892B8A2B8B2B51F180919403E0919503F0
:101EE000F091960390818927808380919D03909142
:101EF0009E03A0919F03B091A003181619061A061D
:101F00001B06C4F480919D0390919E03A0919F03B2
:101F1000B091A0030197A109B10980939D0390930B
:101F20009E03A0939F03B093A00304C0809110016F
:101F30000E94240FFF91EF91BF91AF919F918F91DC
:101F40007F916F915F914F913F912F910F900FBEB5
:101F50000F901F901895DC01ED91FC91DB01149618
:101F60004D915C9115976D917C910280F381E02DEC
:101F70000994CF93DF93BC0184ED92E00E94AB0FF4
:101F8000EC016FE672E084ED92E00E943F138C0F4B
:101F90009D1FDF91CF910895FC01538D448D252F16
:101FA00030E0842F90E0821B930B541710F0CF96F3
:101FB000089501970895FC01918D828D981761F025
:101FC000828DDF01A80FB11D5D968C91928D9F5F70
:101FD0009F73928F90E008958FEF9FEF0895FC011B
:101FE000918D828D981731F0828DE80FF11D858DCE
:101FF00090E008958FEF9FEF0895FC01918D228D61
:10200000892F90E0805C9F4F821B91098F739927E5
:10201000089584ED92E00E94FD0F21E0892B09F4E0
:1020200020E0822F0895FC01848DDF01A80FB11DEF
:10203000A35ABF4F2C91848D90E001968F739927FE
:10204000848FA689B7892C93A089B1898C918064EB
:102050008C93938D848D981306C00288F389E02DAC
:1020600080818F7D80830895EF92FF920F931F935D
:10207000CF93DF93EC0181E0888F9B8D8C8D98133B
:1020800005C0E889F989808185FD24C0F62E0B8D75
:1020900010E00F5F1F4F0F731127E02E8C8DE81299
:1020A0000CC00FB607FCFACFE889F989808185FF5B
:1020B000F5CFCE010E941310F1CF8B8DFE01E80FFA
:1020C000F11DE35AFF4FF0820B8FEA89FB89808173
:1020D000806207C0EE89FF896083E889F989808181
:1020E0008064808381E090E0DF91CF911F910F9118
:1020F000FF90EF900895CF93DF93EC01888D8823B4
:10210000C9F0EA89FB89808185FD05C0A889B98964
:102110008C9186FD0FC00FB607FCF5CF808185FF3F
:10212000F2CFA889B9898C9185FFEDCFCE010E94AD
:102130001310E7CFDF91CF91089580E090E0892BD5
:1021400029F00E94091081110C9400000895833039
:1021500081F028F4813099F08230A1F00895873021
:10216000A9F08830B9F08430D1F4809180008F7D5F
:1021700003C0809180008F7780938000089584B59C
:102180008F7702C084B58F7D84BD08958091B000A3
:102190008F7703C08091B0008F7D8093B000089549
:1021A0003FB7F8948091F0039091F103A091F2036E
:1021B000B091F30326B5A89B05C02F3F19F00196F7
:1021C000A11DB11D3FBFBA2FA92F982F8827820FBD
:1021D000911DA11DB11DBC01CD0142E0660F771F0D
:1021E000881F991F4A95D1F708950E9471231F9265
:1021F0000F920FB60F9211242F933F934F935F933B
:102200006F937F938F939F93AF93BF93EF93FF93BE
:1022100084ED92E00E941310FF91EF91BF91AF9176
:102220009F918F917F916F915F914F913F912F91EE
:102230000F900FBE0F901F9018951F920F920FB620
:102240000F9211242F938F939F93EF93FF93E0911D
:10225000E402F091E5028081E091EA02F091EB0264
:1022600082FD12C090818091ED028F5F8F7320916B
:10227000EE02821751F0E091ED02F0E0EC52FD4FDA
:10228000958F8093ED0201C08081FF91EF919F9126
:102290008F912F910F900FBE0F901F901895CF9395
:1022A000DF93282F30E0F901E651FF4F8491F901C7
:1022B000ED55FF4FD491F901EF53FF4FC491CC235B
:1022C00091F081110E94A710EC2FF0E0EE0FFF1F9C
:1022D000E052FF4FA591B491EC91ED2381E090E0A5
:1022E00021F480E002C080E090E0DF91CF9108957A
:1022F0001F93CF93DF93282F30E0F901E651FF4F72
:102300008491F901ED55FF4FD491F901EF53FF4F3F
:10231000C491CC23C9F0162F81110E94A710EC2F75
:10232000F0E0EE0FFF1FE954FF4FA591B4918FB776
:10233000F894111105C09C91ED2FE095E92302C09E
:10234000EC91ED2BEC938FBFDF91CF911F9108950E
:10235000CF93DF9390E0FC01ED55FF4F2491FC01FA
:10236000EF53FF4F8491882361F190E0880F991F0C
:10237000FC01EA52FF4FC591D491FC01E954FF4F93
:10238000A591B491611109C09FB7F89488812095F7
:1023900082238883EC912E230BC0623061F49FB7B7
:1023A000F8943881822F809583238883EC912E2B9B
:1023B0002C939FBF06C08FB7F894E8812E2B2883FB
:1023C0008FBFDF91CF9108958E3008F08E508770C7
:1023D000806480937C0080917A00806480937A008E
:1023E00080917A0086FDFCCF809178002091790061
:1023F00090E0922B08958F929F92AF92BF92CF92CE
:10240000DF92EF92FF926B017C010E94D0104B0192
:102410005C01C114D104E104F104F1F00E94D01078
:10242000DC01CB0188199909AA09BB09883E9340B0
:10243000A105B10570F321E0C21AD108E108F10845
:1024400088EE880E83E0981EA11CB11CC114D10433
:10245000E104F10419F7DDCFFF90EF90DF90CF900A
:10246000BF90AF909F908F9008951F920F920FB6DC
:102470000F9211242F933F938F939F93AF93BF930A
:102480008091790290917A02A0917B02B0917C02B6
:102490003091EF0323E0230F2D3720F40196A11D87
:1024A000B11D05C026E8230F0296A11DB11D209382
:1024B000EF038093790290937A02A0937B02B0930A
:1024C0007C028091F0039091F103A091F203B0910E
:1024D000F3030196A11DB11D8093F0039093F103C6
:1024E000A093F203B093F303BF91AF919F918F91AB
:1024F0003F912F910F900FBE0F901F901895CF9383
:10250000FC01C48121E02093CD03C093EE0310921F
:102510007602109275028385682B81E793E00E9412
:10252000320180917502813208F046C090917402A8
:102530009111FCCF92E09093740291E0909373021A
:102540009FEF9093CC031092CB038093CA03AEEC21
:10255000B3E02AEA33E0F9019E2F921B981718F492
:102560009D919193F9CF1092A9038091A903CC0F6B
:10257000C82BC093A90380917202813061F410923C
:1025800072028091A9038093BB008091BC0083FDFF
:10259000F8CF85EC01C085EE8093BC008091740279
:1025A0008230E1F38091CC038F3F31F08091CC03F6
:1025B000803211F08091CC03109276021092750255
:1025C0001092CD03CF9108950F931F93CF938C0159
:1025D000C62F0E947F126C2F6460C8010E947F1278
:1025E0006C2F6B7FC8010E947F1283EC90E00197F3
:1025F000F1F7CF911F910F9108950F931F93CF93F0
:102600008C01C62F607F61600E94E41280E1C89F48
:10261000B00111246160C8010E94E41281E090E0E1
:10262000CF911F910F910895CF92DF92EF92FF9279
:102630000F931F93CF93DF936C017A018B01C0E05E
:10264000D0E0CE15DF0589F0D8016D918D01D6015E
:10265000ED91FC910190F081E02DC6010995892B47
:1026600011F47E0102C02196ECCFC701DF91CF911A
:102670001F910F91FF90EF90DF90CF90089561151B
:10268000710579F0FB0101900020E9F73197AF0166
:10269000461B570BDC01ED91FC910280F381E02D8C
:1026A000099480E090E00895CF93DF93CDB7DEB733
:1026B00062970FB6F894DEBF0FBECDBF789484B595
:1026C000826084BD84B5816084BD85B5826085BD2E
:1026D00085B5816085BD80916E00816080936E00BC
:1026E00010928100809181008260809381008091AE
:1026F000810081608093810080918000816080935F
:1027000080008091B10084608093B1008091B0001E
:1027100081608093B00080917A00846080937A0019
:1027200080917A00826080937A0080917A00816043
:1027300080937A0080917A00806880937A0010926A
:10274000C100E091E402F091E50282E08083E09133
:10275000E002F091E1021082E091E202F091E302E6
:102760008FEC80831092EC02E091E802F091E90294
:1027700086E08083E091E602F091E702808180614B
:102780008083E091E602F091E70280818860808397
:10279000E091E602F091E702808180688083E09119
:1027A000E602F091E70280818F7D808310927802AB
:1027B00010927702109276021092750210927402B3
:1027C00081E0809373021092720261E082E10E94C4
:1027D000781161E083E10E9478118091B9008E7FC9
:1027E0008093B9008091B9008D7F8093B90088E40F
:1027F0008093B80085E48093BC0010928D03809193
:102800009103823018F098E090938D039091920399
:10281000992339F0813029F480918D03846080936D
:102820008D0362E370E080E090E00E94FB11609114
:10283000930388E893E00E947F1268EE73E080E0E3
:1028400090E00E94FB1160E388E893E00E94E412AC
:102850000BE416E4C8010197F1F760E388E893E020
:102860000E94E412C8010197F1F760E388E893E061
:102870000E94E41283E592E00197F1F760E288E8B4
:1028800093E00E94E41280918D0380620E94420ACC
:1028900084E080938E038CE00E94420A0E94530AD7
:1028A00082E080938F0386E00E94420A82E00E94C9
:1028B000420A8BE39FE10197F1F788E0809393034D
:1028C00060E088E893E00E947F1288E40E94420A58
:1028D00000E011E0F80161918F0188E893E00E9427
:1028E000FD12F1E008301F07A9F760E080917F0337
:1028F0000E94781161E080917D030E94781181E847
:102900000E94850A0E945B0A182F60E080917D0377
:102910000E947811612F6F7780E00E947D0D60E04A
:1029200087E00E947D0D60E084E00E94A81161E0D4
:1029300085E00E94A81161E085E00E94781161E0C5
:1029400086E00E94A81160E086E00E94781161E0B4
:1029500088E00E94A81160E088E00E94781161E0A0
:1029600089E00E94A81160E089E00E94781161E08E
:102970008AE00E94A81160E08AE00E94781160E07D
:1029800080E00E941A0D8FE491E00E94150D61E035
:1029900080E00E941A0D80E691E00E94150D61E032
:1029A00089E00E94781161E08AE00E9478114DE789
:1029B00050E060E070E080E193E00E94B70A6DE7CC
:1029C00070E080E090E00E94FB114DE750E060E095
:1029D00070E087E194E00E94B70A6DE770E080E064
:1029E00090E00E94FB114DE750E060E070E087E965
:1029F00094E00E94B70A6DE770E080E090E00E94EA
:102A0000FB114DE750E060E070E080E793E00E944A
:102A1000B70A6DE770E080E090E00E94FB114DE79F
:102A200050E060E070E087E994E00E94B70A6DE74B
:102A300070E080E090E00E94FB114DE750E060E024
:102A400070E087E295E00E94B70A6DE770E080E0F1
:102A500090E00E94FB1148EE53E060E070E085E7F3
:102A600095E00E94B70A68EE73E080E090E00E9473
:102A7000FB1168EE73E080E090E00E94FB110E9481
:102A8000530A60E089E00E94781160E08AE00E94C9
:102A9000781197E0F92E23E0E22E04E060E086E072
:102AA0000E9478118091850260E081110DC00E9422
:102AB0001A0D81E791E00E94150D61E080E00E940F
:102AC0001A0D8FE791E00DC080E00E941A0D8FE78C
:102AD00091E00E94150D61E080E00E941A0D8AE8E5
:102AE00091E00E94150D80918402811102C060E086
:102AF00001C061E08FE00E941A0D82E991E00E941E
:102B0000150D0E94EE04809383024AE060918402D6
:102B1000CE0101960E94820E4AE060918502CE01AC
:102B20000D960E94820EBE01635F7F4FCE01079615
:102B30000E94AF0ECE0107960E94460DBE016F5F48
:102B40007F4F0E94E60D0E94B90FCE0107960E94AA
:102B5000510ECE010D960E94510ECE0101960E949B
:102B6000510E809183028130A1F4209185029091D1
:102B70008402211109C0911104C081E08093840274
:102B800005C08093850202C09923B9F30E94530ABD
:102B900012C08F3F81F4909185028091840291113F
:102BA00005C0813099F710928402F0CF8111FBCFDC
:102BB00010928502EBCF84E00E944F11892B09F01F
:102BC000C6C54DE750E060E070E080E193E00E9410
:102BD000B70A6DE770E080E090E00E94FB11809101
:102BE0008502811169C180918402811161C182E0F5
:102BF000809382020E94E80484E00E944F11892B96
:102C0000D9F360E080E00E941A0D84E991E00E940F
:102C1000150D61E080E00E941A0D84EA91E00E94A7
:102C2000150D80918202823009F091C580E00E94EA
:102C3000E411813991400CF41CC181E00E94E4113F
:102C4000813991400CF415C14AEF50E060E070E02A
:102C500080E193E00E94B70A6AEF70E080E090E0C4
:102C60000E94FB114AEF50E060E070E08CED93E0D1
:102C70000E94B70A6AEF70E080E090E00E94FB11CA
:102C80004AEF50E060E070E087E994E00E94B70A04
:102C90006AEF70E080E090E00E94FB11E092820217
:102CA0000E94E80410927F0210927E0210927D0230
:102CB00060E080E00E941A0D8BE192E00E94150D09
:102CC00060E086E00E941A0D80910B01682F082EAB
:102CD000000C770B8A300CF03DC54AE0CE0101961E
:102CE0000E94560E6FEF71E0CE0107960E94C90E4A
:102CF000BE016F5F7F4FCE0107960E94E60DBC01BB
:102D000088E893E00E94AB0FCE0107960E94510E17
:102D1000CE0101960E94510E60E088E00E941A0DDB
:102D200084EB91E00E94150D60E089E00E941A0D8D
:102D300080910A01682F082E000C770B4AE08A3038
:102D40000CF015C5CE0101960E94560E6FEF71E092
:102D5000CE0107960E94C90EBE016F5F7F4FCE0164
:102D600007960E94E60DBC0188E893E00E94AB0F35
:102D7000CE0107960E94510ECE0101960E94510E7F
:102D800061E080E00E941A0D80EB91E00E94150D39
:102D900061E086E00E941A0D80910B014AE060918B
:102DA0007F028A300CF0EFC4CE0101960E94820EA1
:102DB0006FEF71E0CE0107960E94C90EBE016F5FF2
:102DC0007F4FCE0107960E94E60DBC0188E893E094
:102DD0000E94AB0FCE0107960E94510ECE010196C4
:102DE0000E94510E61E088E00E941A0D84EB91E090
:102DF0000E94150D61E089E00E941A0D80910A0180
:102E00004AE060917E028A300CF0C9C4CE0101967E
:102E10000E94820E6FEF71E0CE0107960E94C90EEC
:102E2000BE016F5F7F4FCE0107960E94E60DBC0189
:102E300088E893E00E94AB0FCE0107960E94510EE6
:102E4000CE0101960E94510E61E08DE00E941A0DA4
:102E500061E088E893E00E94FD1282E00E94930204
:102E600080938A020E949D0D80918202833009F432
:102E7000A2C484E00E944F11892B09F0D2CE4DE705
:102E800050E060E070E080E193E00E94B70A6DE7F7
:102E900070E080E090E00E94FB1181E0809382026C
:102EA0000E94E80484E00E944F11892BD9F3B9CE27
:102EB000813009F0B3C307C0813009F0AFC38091FE
:102EC00084028111ABC385E0809382020E94E804F2
:102ED00084E00E944F11892BD9F388EB91E00E9486
:102EE0006A0D15E086E0D82E80918202853009F0C7
:102EF0002EC48091850260E081110DC00E941A0DE0
:102F000080EC91E00E94150D61E080E00E941A0DB6
:102F10008CEC91E00DC080E00E941A0D8CEC91E0E9
:102F20000E94150D61E080E00E941A0D87ED91E08E
:102F30000E94150D80918402811102C060E001C0E1
:102F400061E08FE00E941A0D82E991E00E94150D68
:102F50000E94EE04809383024AE060918402CE01D5
:102F600001960E94820E4AE060918502CE010D9684
:102F70000E94820EBE01635F7F4FCE0107960E94C2
:102F8000AF0ECE0107960E94460DBE016F5F7F4FC8
:102F90000E94E60D0E94B90FCE0107960E94510EC5
:102FA000CE010D960E94510ECE0101960E94510E47
:102FB000809183028130A1F4209185029091840256
:102FC000211109C0911104C081E08093840205C0E1
:102FD0008093850202C09923B9F30E94530A12C05C
:102FE0008F3F81F49091850280918402911105C0F8
:102FF000813099F710928402F0CF8111FBCF1092AB
:103000008502EBCF84E00E944F11892B09F06CCF31
:103010004DE750E060E070E080E193E00E94B70A85
:103020006DE770E080E090E00E94FB1180918502E6
:10303000811177C18091840281116FC1D092820287
:103040000E94E80484E00E944F11892BD9F39091EB
:103050000901809108019F3F11F48F3F19F090936F
:10306000810208C081E00E9493028093810282E085
:103070000E949302809380028EED91E00E946A0D7F
:1030800080918202863009F02FCF8091850260E026
:10309000811183C00E941A0D87EE91E00E94150DE8
:1030A00060E082E00E941A0D80918102682F082E54
:1030B000000C770B4AE08A30DCF4CE0101960E94C6
:1030C000560E6FEF71E0CE0107960E94C90EBE0149
:1030D0006F5F7F4FCE0107960E94E60DBC0188E826
:1030E00093E00E94AB0FCE0107960E94510E0BC0D9
:1030F000CE0101960E94560EBE016F5F7F4F88E899
:1031000093E00E94AB0FCE0101960E94510E60E049
:1031100084E00E941A0D84EB91E00E94150D60E09E
:1031200085E00E941A0D80918002682F082E000C05
:10313000770B4AE08A30DCF4CE0101960E94560EED
:103140006FEF71E0CE0107960E94C90EBE016F5F5E
:103150007F4FCE0107960E94E60DBC0188E893E000
:103160000E94AB0FCE0107960E94510E0BC0CE01FC
:1031700001960E94560EBE016F5F7F4F88E893E074
:103180000E94AB0FCE0101960E94510E61E080E0DB
:103190000E941A0D89EE91E00DC080E00E941A0D88
:1031A00089EE91E00E94150D61E080E00E941A0D09
:1031B00087ED91E00E94150D80918402811102C07B
:1031C00060E001C061E08FE00E941A0D82E991E0A9
:1031D0000E94150D0E94EE04809383024AE06091E4
:1031E0008402CE0101960E94820E4AE0609185021F
:1031F000CE010D960E94820EBE01635F7F4FCE010D
:1032000007960E94AF0ECE0107960E94460DBE01A2
:103210006F5F7F4F0E94E60D0E94B90FCE010796A7
:103220000E94510ECE010D960E94510ECE010196C4
:103230000E94510E809183028130A1F42091850279
:1032400090918402211109C0911104C081E0809302
:10325000840205C08093850202C09923B9F30E94BD
:10326000530A12C08F3F81F49091850280918402AD
:10327000911105C0813099F710928402F0CF81112D
:10328000FBCF10928502EBCF84E00E944F11892B77
:1032900009F0F6CE4DE750E060E070E080E193E0A9
:1032A0000E94B70A6DE770E080E090E00E94FB1199
:1032B0008091850281110FC080918402811108C024
:1032C00084E00E944F11892BD9F30E942105D8CEAA
:1032D0008130C9F406C08130B1F48091840281113B
:1032E00012C0109382028091810280930901809123
:1032F0008002809308010E94E80484E00E944F113C
:10330000892BD9F3BDCE109382020E94E80484E099
:103310000E944F11892BD9F3B3CE813009F073C1CC
:1033200007C0813009F06FC18091840281116BC1A7
:10333000F09282020E94E80484E00E944F11892BDF
:10334000D9F390910B0180910A019F3F11F48F3FB7
:1033500029F0909381028093800204C01092810230
:10336000109280028EEE91E00E946A0D809182029E
:10337000873009F0B9CD8091850260E0811183C06A
:103380000E941A0D87EE91E00E94150D60E082E028
:103390000E941A0D80918102682F082E000C770B75
:1033A0004AE08A30DCF4CE0101960E94560E6FEF9F
:1033B00071E0CE0107960E94C90EBE016F5F7F4F7C
:1033C000CE0107960E94E60DBC0188E893E00E94BA
:1033D000AB0FCE0107960E94510E0BC0CE01019695
:1033E0000E94560EBE016F5F7F4F88E893E00E94F7
:1033F000AB0FCE0101960E94510E60E084E00E9466
:103400001A0D84EB91E00E94150D60E085E00E94AA
:103410001A0D80918002682F082E000C770B4AE06D
:103420008A30DCF4CE0101960E94560E6FEF71E0F7
:10343000CE0107960E94C90EBE016F5F7F4FCE017D
:1034400007960E94E60DBC0188E893E00E94AB0F4E
:10345000CE0107960E94510E0BC0CE0101960E942C
:10346000560EBE016F5F7F4F88E893E00E94AB0F5E
:10347000CE0101960E94510E61E080E00E941A0D7B
:1034800089EE91E00DC080E00E941A0D89EE91E076
:103490000E94150D61E080E00E941A0D87ED91E019
:1034A0000E94150D80918402811102C060E001C06C
:1034B00061E08FE00E941A0D82E991E00E94150DF3
:1034C0000E94EE04809383024AE060918402CE0160
:1034D00001960E94820E4AE060918502CE010D960F
:1034E0000E94820EBE01635F7F4FCE0107960E944D
:1034F000AF0ECE0107960E94460DBE016F5F7F4F53
:103500000E94E60D0E94B90FCE0107960E94510E4F
:10351000CE010D960E94510ECE0101960E94510ED1
:10352000809183028130A1F42091850290918402E0
:10353000211109C0911104C081E08093840205C06B
:103540008093850202C09923B9F30E94530A12C0E6
:103550008F3F81F49091850280918402911105C082
:10356000813099F710928402F0CF8111FBCF109235
:103570008502EBCF84E00E944F11892B09F0F6CE33
:103580004DE750E060E070E080E193E00E94B70A10
:103590006DE770E080E090E00E94FB118091850271
:1035A00081110FC080918402811108C084E00E94C3
:1035B0004F11892BD9F30E942105D8CE8130C9F44F
:1035C00006C08130B1F480918402811112C0109341
:1035D00082028091810280930B018091800280930E
:1035E0000A010E94E80484E00E944F11892BD9F35C
:1035F000BDCE109382020E94E80484E00E944F1125
:10360000892BD9F3B3CE81E0809382020E94E80433
:1036100084E00E944F11892BD9F366CC88E0809317
:1036200082020E94E80484E00E944F11892BD9F3A2
:103630008CE891E00E946A0D80918202883009F046
:1036400086C08091850260E081110DC00E941A0D34
:1036500086EF91E00E94150D61E080E00E941A0D56
:1036600081E092E00DC080E00E941A0D81E092E0BE
:103670000E94150D61E080E00E941A0D8EE092E03C
:103680000E94150D0E94EE04809383024AE060912F
:103690008402CE0101960E94820E4AE0609185026A
:1036A000CE010D960E94820EBE01635F7F4FCE0158
:1036B00007960E94AF0ECE0107960E94460DBE01EE
:1036C0006F5F7F4F0E94E60D0E94B90FCE010796F3
:1036D0000E94510ECE010D960E94510ECE01019610
:1036E0000E94510E80918302813049F490918502AD
:1036F000911102C0809385020E94530A09C08F3F36
:1037000039F4809185028130B9F710928502F4CFA7
:1037100084E00E944F11892B09F08ECF4DE750E0D5
:1037200060E070E080E193E00E94B70A6DE770E02E
:1037300080E090E00E94FB1181E0809382020E9471
:10374000E80484E00E944F11892BD9F375CF0E94C1
:103750009D10A4C94AE0CE0101960E94560EBE01FA
:103760006F5F7F4F88E893E00E94AB0FD1CACE0114
:1037700001960E94560EBE016F5F7F4F88E893E06E
:103780000E94AB0FF9CACE0101960E94820EBE01C3
:103790006F5F7F4F88E893E00E94AB0F1FCBCE0195
:1037A00001960E94820EBE016F5F7F4F88E893E012
:1037B0000E94AB0F45CB80E00E94E411893C91054B
:1037C0000CF4F8C081E00E94E411893C91050CF4EE
:1037D000F1C061E089E00E94781160E088E00E9419
:1037E000781161E086E00E941A0D80910B018A3009
:1037F000F4F44AE060917F02CE0101960E94820EAD
:103800006FEF71E0CE0107960E94C90EBE016F5F97
:103810007F4FCE0107960E94E60DBC0188E893E039
:103820000E94AB0FCE0107960E94510E0EC04AE0D7
:1038300060917F02CE0101960E94820EBE016F5FF1
:103840007F4F88E893E00E94AB0FCE0101960E9463
:10385000510E61E088E00E941A0D84EB91E00E9415
:10386000150D61E089E00E941A0D80910A014AE07D
:1038700060917E028A30DCF4CE0101960E94820EB5
:103880006FEF71E0CE0107960E94C90EBE016F5F17
:103890007F4FCE0107960E94E60DBC0188E893E0B9
:1038A0000E94AB0FCE0107960E94510E0BC0CE01B5
:1038B00001960E94820EBE016F5F7F4F88E893E001
:1038C0000E94AB0FCE0101960E94510E61E08FE085
:1038D0000E941A0D86EB91E00E94150D82E00E9475
:1038E00093024AE0682FCE0101960E94820E4AE0C0
:1038F00060918A02CE010D960E94820EBE01635F26
:103900007F4FCE0107960E94AF0ECE0107960E9410
:10391000460DBE016F5F7F4F0E94E60D0E94B90FFA
:10392000CE0107960E94510ECE010D960E94510EB7
:10393000CE0101960E94510E10918A0282E00E94EF
:1039400093021817B1F082E00E94930280938A02DA
:103950000E949D0D80917E028B3341F480917F0205
:103960008F5F80937F0210927E0203C08F5F8093EF
:103970007E0281E00E94930290E020910901022ED4
:10398000000C330B8217930709F06ECA82E00E9485
:10399000930290E020910801022E000C330B821755
:1039A000930709F061CA009382020E94E8040E9412
:1039B00035065ACA80917D028F5F80937D0261E057
:1039C0008FE00E941A0D81E292E00E94150D61E0E5
:1039D00088E00E94781160E089E00E9478112FB79A
:1039E000F8948091790290917A02A0917B02B09133
:1039F0007C022FBF8093860290938702A093880257
:103A0000B093890280E00E94E411893C91053CF06A
:103A100081E00E94E411893C91050CF043C02FB76E
:103A2000F8948091790290917A02A0917B02B091F2
:103A30007C022FBF409186025091870260918802DC
:103A400070918902841B950BA60BB70B81319742AD
:103A5000A105B10538F040E050E0BA0180ED97E0F3
:103A60000E94B70A81E00E94930290E02091090130
:103A7000022E000C330B8217930721F682E00E947E
:103A8000930290E020910801022E000C330B821764
:103A9000930709F0B7CF009382020E94E8040E94C6
:103AA0003506B0CF86E00E94240FDEC9CF93DF93A6
:103AB000E4EDF2E01382128288EE93E0A0E0B0E041
:103AC00084839583A683B78323E231E03183208307
:103AD00025EC30E03587248724EC30E037872687D3
:103AE00020EC30E0318B208B21EC30E0338B228BCB
:103AF00022EC30E0358B248B26EC30E0378B268BA4
:103B0000118E128E138E148EE1E7F3E0138212826F
:103B100084839583A683B78385E391E09183808333
:103B2000E8E8F3E01382128287E491E091838083D6
:103B300087E2848380E1808782E08187128688E043
:103B40008387CDE7D3E08BE088838CE089838DE0A9
:103B50008A8361E08BE00E94A81161E08A81DF9195
:103B6000CF910C94A811662777270C94F21D45324B
:103B7000510520F4423010F00C94C21DFB0110825C
:103B8000CB010895BB274A3031F4992322F4BDE2DA
:103B9000909581959F4F0C94D91D4532510520F485
:103BA000423010F00C94D81DFB011082CB01089517
:103BB000BB27FB015527AA27880F991FAA1FA41707
:103BC00010F0A41B83955051B9F7A05DAA3308F0FB
:103BD000A95DA193009779F7B111B1931192CB012F
:103BE0000C94701FA0E0B0E0E8EFFDE10C94B6206B
:103BF000EC017B016115710519F0DB018D939C933C
:103C00008E010F5F1F4F7880872D90E00E944F1F1D
:103C1000892B11F0E801F4CFBDE27B1205C00F5FE4
:103C20001F4F7980C1E008C0EBE27E1204C08E0114
:103C30000E5F1F4F7980C0E06801F1E0CF1AD10814
:103C400043E050E060E770E0C6010E94581F892BF6
:103C5000F1F4680122E0C20ED11C45E050E06BE6B1
:103C600070E0C6010E94581F892B21F4680187E08B
:103C7000C80ED11CE114F10419F0D701CD92DC92E9
:103C8000C111FFC060E070E080E89FE703C143E03E
:103C900050E068E670E0C6010E94581F892B51F47D
:103CA000E114F10409F4F2C00E5F1F4FF701118314
:103CB0000083ECC0680160E070E0CB0100E010E040
:103CC000F601D0EDD70DDA3058F52C2F2260622E98
:103CD0002C2F2870C2FF05C0211128C00F5F1F4F75
:103CE00025C0222311F001501109A5E0B0E09B018D
:103CF000AC010E94A7204B015C01880C991CAA1CF6
:103D0000BB1CC501B4016D0F711D811D911D68396A
:103D1000A9E97A078A07A9E19A0740F0C66005C0B9
:103D2000DE3F51F4C3FD44C0C8606C2EBFEFCB1A18
:103D3000DB0A7080C62DC4CF2D2F2F7D2531C1F514
:103D400040814D3211F4C06106C04B3221F03196F2
:103D500021E030E006C03296D60111964C9122E067
:103D600030E0A0EDA40FAA3018F0E21BF30B20C046
:103D700040E050E04038BCE05B075CF49A01220F61
:103D8000331F220F331F420F531F440F551F4A0F7B
:103D9000511D3196DF0111972C91A0EDA20FAA3091
:103DA00048F3C4FF03C0519541955109040F151FF5
:103DB000C1FF07C0E114F10421F03197D701ED9361
:103DC000FC930E94851FC370C33019F06B017C0106
:103DD00006C06B017C01F7FAF094F7F8F09420E04C
:103DE00030E0A901C701B6010E94801F882309F4B1
:103DF00045C017FF06C0119501951109C7E8D0E02D
:103E000002C0CFE9D0E05E01B8E1AB1AB1084601CB
:103E1000BE2DAF2D90E2E92EF12C0E151F0584F07A
:103E2000FE012591359145915491B4018B2F9A2F24
:103E30000E94E61F4B01B82FA92F0E191F09EDCFC5
:103E40002497F594E794CA15DB0539F76401EB2E46
:103E5000FA2E8E2D880F8F2D881F8F3F49F020E07E
:103E600030E0A901C701B6010E94801F811106C080
:103E700082E290E09093F5038093F403C701B601CA
:103E800009C060E070E080E89FEF04C060E070E08F
:103E900080EC9FE7CDB7DEB7EEE00C94D220911115
:103EA0000C945320803219F089508550C8F708953A
:103EB000FB01DC014150504088F08D9181341CF0B1
:103EC0008B350CF4805E659161341CF06B350CF41D
:103ED000605E861B611171F3990B0895881BFCCFFE
:103EE000DC01FC01672F71917723E1F7329704C061
:103EF0007C916D9370836291AE17BF07C8F30895EC
:103F00000E94C21F08F481E00895E89409C097FB5D
:103F10003EF490958095709561957F4F8F4F9F4FA0
:103F20009923A9F0F92F96E9BB279395F6958795E4
:103F300077956795B795F111F8CFFAF4BB0F11F4A7
:103F400060FF1BC06F5F7F4F8F4F9F4F16C088234E
:103F500011F096E911C0772321F09EE8872F762F84
:103F600005C0662371F096E8862F70E060E02AF0C5
:103F70009A95660F771F881FDAF7880F96958795B1
:103F800097F90895990F0008550FAA0BE0E8FEEF86
:103F900016161706E807F907C0F012161306E4070D
:103FA000F50798F0621B730B840B950B39F40A2606
:103FB00061F0232B242B252B21F408950A2609F4E4
:103FC000A140A6958FEF811D811D08950E94F91FC4
:103FD0000C946D200E945F2038F00E94662020F033
:103FE000952311F00C9456200C945C2011240C9411
:103FF000A1200E947E2070F3959FC1F3950F50E0A1
:10400000551F629FF001729FBB27F00DB11D639F8A
:10401000AA27F00DB11DAA1F649F6627B00DA11D30
:10402000661F829F2227B00DA11D621F739FB00DD6
:10403000A11D621F839FA00D611D221F749F332746
:10404000A00D611D231F849F600D211D822F762FDF
:104050006A2F11249F5750409AF0F1F088234AF0BC
:10406000EE0FFF1FBB1F661F771F881F9150504028
:10407000A9F79E3F510580F00C9456200C94A12086
:104080005F3FE4F3983ED4F3869577956795B795AF
:10409000F795E7959F5FC1F7FE2B880F911D9695C9
:1040A000879597F9089599278827089597F99F6725
:1040B00080E870E060E008959FEF80EC08950024B0
:1040C0000A941616170618060906089500240A947D
:1040D00012161306140605060895092E0394000C03
:1040E00011F4882352F0BB0F40F4BF2B11F460FF92
:1040F00004C06F5F7F4F8F4F9F4F089557FD9058BB
:10410000440F551F59F05F3F71F04795880F97FB9B
:10411000991F61F09F3F79F0879508951216130655
:104120001406551FF2CF4695F1DF08C01616170684
:104130001806991FF1CF86957105610508940895B9
:10414000E894BB2766277727CB0197F908950E944B
:10415000E920A59F900DB49F900DA49F800D911D07
:10416000112408952F923F924F925F926F927F9207
:104170008F929F92AF92BF92CF92DF92EF92FF9277
:104180000F931F93CF93DF93CDB7DEB7CA1BDB0B23
:104190000FB6F894DEBF0FBECDBF09942A883988C8
:1041A00048885F846E847D848C849B84AA84B984CF
:1041B000C884DF80EE80FD800C811B81AA81B981DB
:1041C000CE0FD11D0FB6F894DEBF0FBECDBFED01EF
:1041D0000895A29FB001B39FC001A39F700D811DE0
:1041E0001124911DB29F700D811D1124911D089500
:1041F0000E94862088F09F5798F0B92F9927B751D1
:10420000B0F0E1F0660F771F881F991F1AF0BA957A
:10421000C9F714C0B13091F00E94A020B1E0089518
:104220000C94A020672F782F8827B85F39F0B93F0A
:10423000CCF3869577956795B395D9F73EF490952D
:104240008095709561957F4F8F4F9F4F0895991B73
:1042500079E004C0991F961708F0961B881F7A957D
:10426000C9F780950895A1E21A2EAA1BBB1BFD0178
:104270000DC0AA1FBB1FEE1FFF1FA217B307E40745
:10428000F50720F0A21BB30BE40BF50B661F771F9D
:10429000881F991F1A9469F760957095809590957D
:1042A0009B01AC01BD01CF010895052E97FB1EF4C3
:1042B00000940E946C2157FD07D00E94332107FC17
:1042C00003D04EF40C946C21509540953095219577
:1042D0003F4F4F4F5F4F0895909580957095619532
:1042E0007F4F8F4F9F4F0895EE0FFF1F0590F49162
:1042F000E02D0994CF93DF938230910510F482E092
:1043000090E0E091F803F091F90320E030E0C0E0A4
:10431000D0E0309711F14081518148175907C0F022
:104320004817590761F482819381209719F09B8384
:104330008A832BC09093F9038093F80326C021153C
:10434000310519F04217530718F49A01BE01DF0135
:10435000EF010280F381E02DDCCF2115310509F159
:10436000281B390B2430310590F412968D919C91C5
:1043700013976115710521F0FB019383828304C0BB
:104380009093F9038093F803FD01329644C0FD0138
:10439000E20FF31F81939193225031092D933C93A7
:1043A0003AC02091F6033091F703232B41F420917A
:1043B0001301309114013093F7032093F6032091F9
:1043C0001101309112012115310541F42DB73EB78D
:1043D0004091150150911601241B350BE091F60315
:1043E000F091F703E217F307A0F42E1B3F0B2817F9
:1043F000390778F0AC014E5F5F4F2417350748F05E
:104400004E0F5F1F5093F7034093F60381939193F0
:1044100002C0E0E0F0E0CF01DF91CF9108950F936B
:104420001F93CF93DF93009709F48CC0FC01329760
:10443000138212820091F8031091F90301151105FE
:1044400081F420813181820F931F2091F6033091F6
:10445000F7032817390779F5F093F703E093F6038C
:1044600071C0D80140E050E0AE17BF0750F412967B
:104470002D913C911397AD012115310509F1D90119
:10448000F3CF9D01DA013383228360817181860F2E
:10449000971F8217930769F4EC0128813981260F51
:1044A000371F2E5F3F4F318320838A819B81938307
:1044B0008283452B29F4F093F903E093F80342C07B
:1044C0001396FC93EE931297ED01499159919E0139
:1044D000240F351FE217F30771F480819181840F57
:1044E000951F029611969C938E93828193811396C9
:1044F0009C938E931297E0E0F0E0D80112968D9194
:104500009C911397009719F0F8018C01F6CF8D91CB
:104510009C9198012E5F3F4F820F931F2091F603CD
:104520003091F7032817390769F4309729F410926E
:10453000F9031092F80302C0138212821093F7035A
:104540000093F603DF91CF911F910F910895A0E0A2
:10455000B0E0EDEAF2E20C94B620EC01009721F411
:10456000CB010E947A21B8C0FC01E60FF71F9C0125
:1045700022503109E217F30708F4ACC0D9010D91BC
:104580001C91119706171707B0F00530110508F4B4
:104590009FC0C80104978617970708F499C0025076
:1045A0001109061B170B019311936D937C93CF0197
:1045B0000E940F228DC05B01A01AB10A4C01800E2F
:1045C000911EA091F803B091F90340E050E0E12C76
:1045D000F12C109709F44AC0A815B905D1F56D90D2
:1045E0007C901197630182E0C80ED11CCA14DB04D1
:1045F00080F1A3014A195B096A0182E0C80ED11C4F
:104600001296BC9012971396AC91B5E0CB16D104DC
:1046100040F0B282A38351834083D9016D937C9390
:104620000AC00E5F1F4FC301800F911FF9019183D4
:104630008083EB2DFA2FE114F10431F0D7011396AA
:10464000FC93EE93129744C0F093F903E093F803C0
:104650003FC08D919C9111974817590708F4AC0100
:104660007D0112960D90BC91A02DB3CF8091F603E1
:104670009091F70388159905E1F446175707C8F498
:104680008091110190911201009741F48DB79EB76E
:104690004091150150911601841B950BE817F907FD
:1046A000C8F4F093F703E093F603F9017183608394
:1046B0000FC0CB010E947A217C01009759F0A8011C
:1046C000BE010E947623CE010E940F22C70104C0C2
:1046D000CE0102C080E090E0CDB7DEB7EEE00C94F2
:1046E000D22081E090E0F8940C94A023FB01DC013F
:1046F00002C001900D9241505040D8F70895FB013F
:10470000DC0101900D920020E1F70895FB01519129
:104710005523A9F0BF01DC014D9145174111E1F787
:1047200059F4CD010190002049F04D9140154111FF
:10473000C9F3FB014111EFCF81E090E001970895AB
:04474000F894FFCF1B
:104744000010101F11110000FFFFFFFF0100010006
:10475400FF0000FA03800000004000140054000031
:1047640000000034101413CC0F7B10FD0FDB0FEF8F
:104774000F00000000320102016201DC00FA00EBCC
:1047840000DD0000000000FD121413620161013D10
:104794005374756479202043757368696F6E3D00A6
:1047A4002D2D2D3230313820204B4354462D2D2DC4
:1047B400003E205374617274205374756479003E12
:1047C400205365742054696D65003E2041626F7505
:1047D40074003C00506C65617365207369742064D7
:1047E4006F776E007468652043757368696F6E0037
:1047F40054696D653A004F0073657454696D6500C2
:104804003E205365742052616E6765003E205365F7
:104814007420476F616C003E204261636B007365D6
:104824007452616E6765003E003E204F4B00736515
:1048340074476F616C005665722E20312E302E3015
:104844000043434C2D42592D4E432D534100537088
:1048540061726B204D616B65727300476F616C3AD6
:1048640000580078787878787878780074696D657D
:1048740053657474696E67546F6F6C004661696C3C
:1048840020746F206163686965766500436F6E67A5
:10489400726174756C6174696F6E73210053636F18
:1048A40072653A005374616E6455703A0020000DCD
:0248B4000A00F8
:107E0000112484B714BE81FFF0D085E080938100F7
:107E100082E08093C00088E18093C10086E0809377
:107E2000C20080E18093C4008EE0C9D0259A86E02C
:107E300020E33CEF91E0309385002093840096BBD3
:107E4000B09BFECF1D9AA8958150A9F7CC24DD24C4
:107E500088248394B5E0AB2EA1E19A2EF3E0BF2EE7
:107E6000A2D0813461F49FD0082FAFD0023811F036
:107E7000013811F484E001C083E08DD089C08234E0
:107E800011F484E103C0853419F485E0A6D080C0E4
:107E9000853579F488D0E82EFF2485D0082F10E0AE
:107EA000102F00270E291F29000F111F8ED06801E7
:107EB0006FC0863521F484E090D080E0DECF843638
:107EC00009F040C070D06FD0082F6DD080E0C81688
:107ED00080E7D80618F4F601B7BEE895C0E0D1E017
:107EE00062D089930C17E1F7F0E0CF16F0E7DF06D8
:107EF00018F0F601B7BEE89568D007B600FCFDCFD4
:107F0000A601A0E0B1E02C9130E011968C91119780
:107F100090E0982F8827822B932B1296FA010C0160
:107F200087BEE89511244E5F5F4FF1E0A038BF0790
:107F300051F7F601A7BEE89507B600FCFDCF97BE46
:107F4000E89526C08437B1F42ED02DD0F82E2BD052
:107F50003CD0F601EF2C8F010F5F1F4F84911BD097
:107F6000EA94F801C1F70894C11CD11CFA94CF0C13
:107F7000D11C0EC0853739F428D08EE10CD085E9AC
:107F80000AD08FE07ACF813511F488E018D01DD067
:107F900080E101D065CF982F8091C00085FFFCCF94
:107FA0009093C60008958091C00087FFFCCF809118
:107FB000C00084FD01C0A8958091C6000895E0E648
:107FC000F0E098E1908380830895EDDF803219F02E
:107FD00088E0F5DFFFCF84E1DECF1F93182FE3DFCA
:107FE0001150E9F7F2DF1F91089580E0E8DFEE27F6
:047FF000FF270994CA
:027FFE00040479
:0400000300007E007B
:00000001FF